{
  "contractName": "DistributorRegistry",
  "abi": [
    {
      "anonymous": false,
      "inputs": [
        {
          "indexed": true,
          "internalType": "string",
          "name": "farmerAadhar",
          "type": "string"
        },
        {
          "indexed": false,
          "internalType": "string",
          "name": "productName",
          "type": "string"
        },
        {
          "indexed": false,
          "internalType": "string",
          "name": "pickingDate",
          "type": "string"
        },
        {
          "indexed": false,
          "internalType": "string",
          "name": "location",
          "type": "string"
        },
        {
          "indexed": false,
          "internalType": "string",
          "name": "vendorName",
          "type": "string"
        }
      ],
      "name": "DistributorDataSubmitted",
      "type": "event"
    },
    {
      "inputs": [
        {
          "internalType": "string",
          "name": "farmerAadhar",
          "type": "string"
        },
        {
          "internalType": "string",
          "name": "productName",
          "type": "string"
        },
        {
          "internalType": "string",
          "name": "pickingDate",
          "type": "string"
        },
        {
          "internalType": "string",
          "name": "location",
          "type": "string"
        },
        {
          "internalType": "string",
          "name": "vendorName",
          "type": "string"
        }
      ],
      "name": "submitDistributorData",
      "outputs": [],
      "stateMutability": "nonpayable",
      "type": "function"
    },
    {
      "inputs": [
        {
          "internalType": "string",
          "name": "farmerAadhar",
          "type": "string"
        }
      ],
      "name": "getDistributorData",
      "outputs": [
        {
          "internalType": "string",
          "name": "productName",
          "type": "string"
        },
        {
          "internalType": "string",
          "name": "pickingDate",
          "type": "string"
        },
        {
          "internalType": "string",
          "name": "location",
          "type": "string"
        },
        {
          "internalType": "string",
          "name": "vendorName",
          "type": "string"
        }
      ],
      "stateMutability": "view",
      "type": "function",
      "constant": true
    },
    {
      "inputs": [
        {
          "internalType": "string",
          "name": "farmerAadhar",
          "type": "string"
        }
      ],
      "name": "distributorExists",
      "outputs": [
        {
          "internalType": "bool",
          "name": "",
          "type": "bool"
        }
      ],
      "stateMutability": "view",
      "type": "function",
      "constant": true
    }
  ],
  "bytecode": "0x608060405234801561001057600080fd5b50610b3d806100206000396000f3fe608060405234801561001057600080fd5b50600436106100415760003560e01c806385fc62dd146100465780638f21fa5214610079578063d93c04ab146100a9575b600080fd5b610060600480360381019061005b9190610694565b6100c5565b60405161007094939291906108ef565b60405180910390f35b610093600480360381019061008e9190610694565b6103aa565b6040516100a091906108d4565b60405180910390f35b6100c360048036038101906100be91906106d5565b6103e1565b005b6060806060806000856040516100db91906108bd565b908152602001604051809103902060040160009054906101000a900460ff16610139576040517f08c379a000000000000000000000000000000000000000000000000000000000815260040161013090610950565b60405180910390fd5b6000808660405161014a91906108bd565b908152602001604051809103902090508060000181600101826002018360030183805461017690610a66565b80601f01602080910402602001604051908101604052809291908181526020018280546101a290610a66565b80156101ef5780601f106101c4576101008083540402835291602001916101ef565b820191906000526020600020905b8154815290600101906020018083116101d257829003601f168201915b5050505050935082805461020290610a66565b80601f016020809104026020016040519081016040528092919081815260200182805461022e90610a66565b801561027b5780601f106102505761010080835404028352916020019161027b565b820191906000526020600020905b81548152906001019060200180831161025e57829003601f168201915b5050505050925081805461028e90610a66565b80601f01602080910402602001604051908101604052809291908181526020018280546102ba90610a66565b80156103075780601f106102dc57610100808354040283529160200191610307565b820191906000526020600020905b8154815290600101906020018083116102ea57829003601f168201915b5050505050915080805461031a90610a66565b80601f016020809104026020016040519081016040528092919081815260200182805461034690610a66565b80156103935780601f1061036857610100808354040283529160200191610393565b820191906000526020600020905b81548152906001019060200180831161037657829003601f168201915b505050505090509450945094509450509193509193565b600080826040516103bb91906108bd565b908152602001604051809103902060040160009054906101000a900460ff169050919050565b6000856040516103f191906108bd565b908152602001604051809103902060040160009054906101000a900460ff1615610450576040517f08c379a000000000000000000000000000000000000000000000000000000000815260040161044790610970565b60405180910390fd5b6040518060a001604052808581526020018481526020018381526020018281526020016001151581525060008660405161048a91906108bd565b908152602001604051809103902060008201518160000190805190602001906104b4929190610589565b5060208201518160010190805190602001906104d1929190610589565b5060408201518160020190805190602001906104ee929190610589565b50606082015181600301908051906020019061050b929190610589565b5060808201518160040160006101000a81548160ff0219169083151502179055509050508460405161053d91906108bd565b60405180910390207f15efd938d6e5f4101808142847b0797bf537d0ce8a874b73968b356e111c92618585858560405161057a94939291906108ef565b60405180910390a25050505050565b82805461059590610a66565b90600052602060002090601f0160209004810192826105b757600085556105fe565b82601f106105d057805160ff19168380011785556105fe565b828001600101855582156105fe579182015b828111156105fd5782518255916020019190600101906105e2565b5b50905061060b919061060f565b5090565b5b80821115610628576000816000905550600101610610565b5090565b600061063f61063a846109c1565b610990565b90508281526020810184848401111561065757600080fd5b610662848285610a24565b509392505050565b600082601f83011261067b57600080fd5b813561068b84826020860161062c565b91505092915050565b6000602082840312156106a657600080fd5b600082013567ffffffffffffffff8111156106c057600080fd5b6106cc8482850161066a565b91505092915050565b600080600080600060a086880312156106ed57600080fd5b600086013567ffffffffffffffff81111561070757600080fd5b6107138882890161066a565b955050602086013567ffffffffffffffff81111561073057600080fd5b61073c8882890161066a565b945050604086013567ffffffffffffffff81111561075957600080fd5b6107658882890161066a565b935050606086013567ffffffffffffffff81111561078257600080fd5b61078e8882890161066a565b925050608086013567ffffffffffffffff8111156107ab57600080fd5b6107b78882890161066a565b9150509295509295909350565b6107cd81610a18565b82525050565b60006107de826109f1565b6107e881856109fc565b93506107f8818560208601610a33565b61080181610af6565b840191505092915050565b6000610817826109f1565b6108218185610a0d565b9350610831818560208601610a33565b80840191505092915050565b600061084a6016836109fc565b91507f4469737472696275746f72206e6f7420666f756e6421000000000000000000006000830152602082019050919050565b600061088a6020836109fc565b91507f4469737472696275746f72206461746120616c726561647920657869737473216000830152602082019050919050565b60006108c9828461080c565b915081905092915050565b60006020820190506108e960008301846107c4565b92915050565b6000608082019050818103600083015261090981876107d3565b9050818103602083015261091d81866107d3565b9050818103604083015261093181856107d3565b9050818103606083015261094581846107d3565b905095945050505050565b600060208201905081810360008301526109698161083d565b9050919050565b600060208201905081810360008301526109898161087d565b9050919050565b6000604051905081810181811067ffffffffffffffff821117156109b7576109b6610ac7565b5b8060405250919050565b600067ffffffffffffffff8211156109dc576109db610ac7565b5b601f19601f8301169050602081019050919050565b600081519050919050565b600082825260208201905092915050565b600081905092915050565b60008115159050919050565b82818337600083830152505050565b60005b83811015610a51578082015181840152602081019050610a36565b83811115610a60576000848401525b50505050565b60006002820490506001821680610a7e57607f821691505b60208210811415610a9257610a91610a98565b5b50919050565b7f4e487b7100000000000000000000000000000000000000000000000000000000600052602260045260246000fd5b7f4e487b7100000000000000000000000000000000000000000000000000000000600052604160045260246000fd5b6000601f19601f830116905091905056fea26469706673582212209a3cd4a226fa9036f1c9c4d1b21ffc0628aec9c44012c5662bba51cdd559384764736f6c63430008000033",
  "immutableReferences": {},
  "source": "// SPDX-License-Identifier: MIT\r\npragma solidity ^0.8.0;\r\n\r\ncontract DistributorRegistry {\r\n    // Struct to store distributor details\r\n    struct Distributor {\r\n        string productName;\r\n        string pickingDate;\r\n        string location;\r\n        string vendorName;\r\n        bool exists; // Flag to track if distributor exists\r\n    }\r\n\r\n    // Mapping to store distributor data using Farmer's Aadhar number as the key\r\n    mapping(string => Distributor) private distributors;\r\n\r\n    // Event to log when distributor data is submitted\r\n    event DistributorDataSubmitted(\r\n        string indexed farmerAadhar,\r\n        string productName,\r\n        string pickingDate,\r\n        string location,\r\n        string vendorName\r\n    );\r\n\r\n    // Function to submit distributor data\r\n    function submitDistributorData(\r\n        string memory farmerAadhar,\r\n        string memory productName,\r\n        string memory pickingDate,\r\n        string memory location,\r\n        string memory vendorName\r\n    ) public {\r\n        require(!distributors[farmerAadhar].exists, \"Distributor data already exists!\");\r\n\r\n        // Store distributor details\r\n        distributors[farmerAadhar] = Distributor({\r\n            productName: productName,\r\n            pickingDate: pickingDate,\r\n            location: location,\r\n            vendorName: vendorName,\r\n            exists: true\r\n        });\r\n\r\n        // Emit event\r\n        emit DistributorDataSubmitted(farmerAadhar, productName, pickingDate, location, vendorName);\r\n    }\r\n\r\n    // Function to fetch distributor data using Farmer's Aadhar number\r\n    function getDistributorData(\r\n        string memory farmerAadhar\r\n    ) public view returns (\r\n        string memory productName,\r\n        string memory pickingDate,\r\n        string memory location,\r\n        string memory vendorName\r\n    ) {\r\n        require(distributors[farmerAadhar].exists, \"Distributor not found!\");\r\n\r\n        Distributor storage distributor = distributors[farmerAadhar];\r\n        return (\r\n            distributor.productName,\r\n            distributor.pickingDate,\r\n            distributor.location,\r\n            distributor.vendorName\r\n        );\r\n    }\r\n\r\n    // Function to check if distributor exists\r\n    function distributorExists(string memory farmerAadhar) public view returns (bool) {\r\n        return distributors[farmerAadhar].exists;\r\n    }\r\n}\r\n",
  "sourcePath": "A:\\Aarambh\\imp\\Food 1\\contracts\\DistributorRegistry.sol",
  "compiler": {
    "name": "solc",
    "version": "0.8.0+commit.c7dfd78e.Emscripten.clang"
  },
  "schemaVersion": "3.4.16",
  "updatedAt": "2025-03-27T07:51:08.992Z",
  "networkType": "ethereum",
  "devdoc": {
    "kind": "dev",
    "methods": {},
    "version": 1
  },
  "userdoc": {
    "kind": "user",
    "methods": {},
    "version": 1
  }
}