{
  "contractName": "FarmerDataSubmission",
  "abi": [
    {
      "anonymous": false,
      "inputs": [
        {
          "indexed": false,
          "internalType": "string",
          "name": "aadharId",
          "type": "string"
        },
        {
          "indexed": false,
          "internalType": "string",
          "name": "name",
          "type": "string"
        },
        {
          "indexed": false,
          "internalType": "uint256",
          "name": "timestamp",
          "type": "uint256"
        }
      ],
      "name": "FarmerDataSubmitted",
      "type": "event"
    },
    {
      "inputs": [
        {
          "internalType": "string",
          "name": "",
          "type": "string"
        }
      ],
      "name": "farmers",
      "outputs": [
        {
          "internalType": "string",
          "name": "name",
          "type": "string"
        },
        {
          "internalType": "string",
          "name": "aadharId",
          "type": "string"
        },
        {
          "internalType": "string",
          "name": "location",
          "type": "string"
        },
        {
          "internalType": "uint256",
          "name": "farmSize",
          "type": "uint256"
        },
        {
          "internalType": "bool",
          "name": "npopCertified",
          "type": "bool"
        }
      ],
      "stateMutability": "view",
      "type": "function",
      "constant": true
    },
    {
      "inputs": [
        {
          "internalType": "string",
          "name": "name",
          "type": "string"
        },
        {
          "internalType": "string",
          "name": "aadharId",
          "type": "string"
        },
        {
          "internalType": "string",
          "name": "location",
          "type": "string"
        },
        {
          "internalType": "uint256",
          "name": "farmSize",
          "type": "uint256"
        },
        {
          "internalType": "bool",
          "name": "npopCertified",
          "type": "bool"
        },
        {
          "internalType": "string[]",
          "name": "productNames",
          "type": "string[]"
        },
        {
          "internalType": "uint256[]",
          "name": "productQuantities",
          "type": "uint256[]"
        },
        {
          "internalType": "uint256[]",
          "name": "daysToGrow",
          "type": "uint256[]"
        }
      ],
      "name": "submitFarmerData",
      "outputs": [],
      "stateMutability": "nonpayable",
      "type": "function"
    },
    {
      "inputs": [
        {
          "internalType": "string",
          "name": "aadharId",
          "type": "string"
        }
      ],
      "name": "getFarmerData",
      "outputs": [
        {
          "internalType": "string",
          "name": "name",
          "type": "string"
        },
        {
          "internalType": "string",
          "name": "location",
          "type": "string"
        },
        {
          "internalType": "uint256",
          "name": "farmSize",
          "type": "uint256"
        },
        {
          "internalType": "bool",
          "name": "npopCertified",
          "type": "bool"
        },
        {
          "components": [
            {
              "internalType": "string",
              "name": "productName",
              "type": "string"
            },
            {
              "internalType": "uint256",
              "name": "productQuantity",
              "type": "uint256"
            },
            {
              "internalType": "uint256",
              "name": "daysToGrow",
              "type": "uint256"
            }
          ],
          "internalType": "struct FarmerDataSubmission.Product[]",
          "name": "products",
          "type": "tuple[]"
        }
      ],
      "stateMutability": "view",
      "type": "function",
      "constant": true
    }
  ],
  "bytecode": "0x608060405234801561001057600080fd5b50611329806100206000396000f3fe608060405234801561001057600080fd5b50600436106100415760003560e01c806317757add146100465780635cda317214610062578063c73a341914610096575b600080fd5b610060600480360381019061005b9190610af3565b6100ca565b005b61007c60048036038101906100779190610ab2565b6103b0565b60405161008d959493929190610eb5565b60405180910390f35b6100b060048036038101906100ab9190610ab2565b6105a1565b6040516100c1959493929190610f62565b60405180910390f35b600080886040516100db9190610e9e565b9081526020016040518091039020600301541461012d576040517f08c379a00000000000000000000000000000000000000000000000000000000081526004016101249061100a565b60405180910390fd5b8151835114801561013f575080518251145b61017e576040517f08c379a000000000000000000000000000000000000000000000000000000000815260040161017590610fca565b60405180910390fd5b6000808860405161018f9190610e9e565b90815260200160405180910390209050888160000190805190602001906101b7929190610860565b50878160010190805190602001906101d0929190610860565b50868160020190805190602001906101e9929190610860565b50858160030181905550848160040160006101000a81548160ff02191690831515021790555060005b845181101561036957816005016040518060600160405280878481518110610263577f4e487b7100000000000000000000000000000000000000000000000000000000600052603260045260246000fd5b602002602001015181526020018684815181106102a9577f4e487b7100000000000000000000000000000000000000000000000000000000600052603260045260246000fd5b602002602001015181526020018584815181106102ef577f4e487b7100000000000000000000000000000000000000000000000000000000600052603260045260246000fd5b60200260200101518152509080600181540180825580915050600190039060005260206000209060030201600090919091909150600082015181600001908051906020019061033f929190610860565b50602082015181600101556040820151816002015550508080610361906111de565b915050610212565b507ffaf7d6dbf5eb21652d8e977dfd75c481f2ab771e65666bef83e019b9ae7350f8888a4260405161039d93929190610f1d565b60405180910390a1505050505050505050565b6000818051602081018201805184825260208301602085012081835280955050505050506000915090508060000180546103e9906111ac565b80601f0160208091040260200160405190810160405280929190818152602001828054610415906111ac565b80156104625780601f1061043757610100808354040283529160200191610462565b820191906000526020600020905b81548152906001019060200180831161044557829003601f168201915b505050505090806001018054610477906111ac565b80601f01602080910402602001604051908101604052809291908181526020018280546104a3906111ac565b80156104f05780601f106104c5576101008083540402835291602001916104f0565b820191906000526020600020905b8154815290600101906020018083116104d357829003601f168201915b505050505090806002018054610505906111ac565b80601f0160208091040260200160405190810160405280929190818152602001828054610531906111ac565b801561057e5780601f106105535761010080835404028352916020019161057e565b820191906000526020600020905b81548152906001019060200180831161056157829003601f168201915b5050505050908060030154908060040160009054906101000a900460ff16905085565b6060806000806060600080876040516105ba9190610e9e565b90815260200160405180910390209050600081600301541415610612576040517f08c379a000000000000000000000000000000000000000000000000000000000815260040161060990610fea565b60405180910390fd5b806000018160020182600301548360040160009054906101000a900460ff1684600501848054610641906111ac565b80601f016020809104026020016040519081016040528092919081815260200182805461066d906111ac565b80156106ba5780601f1061068f576101008083540402835291602001916106ba565b820191906000526020600020905b81548152906001019060200180831161069d57829003601f168201915b505050505094508380546106cd906111ac565b80601f01602080910402602001604051908101604052809291908181526020018280546106f9906111ac565b80156107465780601f1061071b57610100808354040283529160200191610746565b820191906000526020600020905b81548152906001019060200180831161072957829003601f168201915b5050505050935080805480602002602001604051908101604052809291908181526020016000905b8282101561084657838290600052602060002090600302016040518060600160405290816000820180546107a1906111ac565b80601f01602080910402602001604051908101604052809291908181526020018280546107cd906111ac565b801561081a5780601f106107ef5761010080835404028352916020019161081a565b820191906000526020600020905b8154815290600101906020018083116107fd57829003601f168201915b50505050508152602001600182015481526020016002820154815250508152602001906001019061076e565b505050509050955095509550955095505091939590929450565b82805461086c906111ac565b90600052602060002090601f01602090048101928261088e57600085556108d5565b82601f106108a757805160ff19168380011785556108d5565b828001600101855582156108d5579182015b828111156108d45782518255916020019190600101906108b9565b5b5090506108e291906108e6565b5090565b5b808211156108ff5760008160009055506001016108e7565b5090565b60006109166109118461105b565b61102a565b9050808382526020820190508260005b85811015610956578135850161093c8882610a73565b845260208401935060208301925050600181019050610926565b5050509392505050565b600061097361096e84611087565b61102a565b9050808382526020820190508285602086028201111561099257600080fd5b60005b858110156109c257816109a88882610a9d565b845260208401935060208301925050600181019050610995565b5050509392505050565b60006109df6109da846110b3565b61102a565b9050828152602081018484840111156109f757600080fd5b610a0284828561116a565b509392505050565b600082601f830112610a1b57600080fd5b8135610a2b848260208601610903565b91505092915050565b600082601f830112610a4557600080fd5b8135610a55848260208601610960565b91505092915050565b600081359050610a6d816112c5565b92915050565b600082601f830112610a8457600080fd5b8135610a948482602086016109cc565b91505092915050565b600081359050610aac816112dc565b92915050565b600060208284031215610ac457600080fd5b600082013567ffffffffffffffff811115610ade57600080fd5b610aea84828501610a73565b91505092915050565b600080600080600080600080610100898b031215610b1057600080fd5b600089013567ffffffffffffffff811115610b2a57600080fd5b610b368b828c01610a73565b985050602089013567ffffffffffffffff811115610b5357600080fd5b610b5f8b828c01610a73565b975050604089013567ffffffffffffffff811115610b7c57600080fd5b610b888b828c01610a73565b9650506060610b998b828c01610a9d565b9550506080610baa8b828c01610a5e565b94505060a089013567ffffffffffffffff811115610bc757600080fd5b610bd38b828c01610a0a565b93505060c089013567ffffffffffffffff811115610bf057600080fd5b610bfc8b828c01610a34565b92505060e089013567ffffffffffffffff811115610c1957600080fd5b610c258b828c01610a34565b9150509295985092959890939650565b6000610c418383610e30565b905092915050565b6000610c54826110f3565b610c5e8185611116565b935083602082028501610c70856110e3565b8060005b85811015610cac5784840389528151610c8d8582610c35565b9450610c9883611109565b925060208a01995050600181019050610c74565b50829750879550505050505092915050565b610cc781611154565b82525050565b6000610cd8826110fe565b610ce28185611127565b9350610cf2818560208601611179565b610cfb816112b4565b840191505092915050565b6000610d11826110fe565b610d1b8185611138565b9350610d2b818560208601611179565b610d34816112b4565b840191505092915050565b6000610d4a826110fe565b610d548185611149565b9350610d64818560208601611179565b80840191505092915050565b6000610d7d601f83611138565b91507f4d69736d6174636820696e2070726f64756374206461746120617272617973006000830152602082019050919050565b6000610dbd601183611138565b91507f4661726d6572206e6f7420666f756e64210000000000000000000000000000006000830152602082019050919050565b6000610dfd601b83611138565b91507f4661726d6572206461746120616c7265616479206578697374732100000000006000830152602082019050919050565b60006060830160008301518482036000860152610e4d8282610ccd565b9150506020830151610e626020860182610e80565b506040830151610e756040860182610e80565b508091505092915050565b610e8981611160565b82525050565b610e9881611160565b82525050565b6000610eaa8284610d3f565b915081905092915050565b600060a0820190508181036000830152610ecf8188610d06565b90508181036020830152610ee38187610d06565b90508181036040830152610ef78186610d06565b9050610f066060830185610e8f565b610f136080830184610cbe565b9695505050505050565b60006060820190508181036000830152610f378186610d06565b90508181036020830152610f4b8185610d06565b9050610f5a6040830184610e8f565b949350505050565b600060a0820190508181036000830152610f7c8188610d06565b90508181036020830152610f908187610d06565b9050610f9f6040830186610e8f565b610fac6060830185610cbe565b8181036080830152610fbe8184610c49565b90509695505050505050565b60006020820190508181036000830152610fe381610d70565b9050919050565b6000602082019050818103600083015261100381610db0565b9050919050565b6000602082019050818103600083015261102381610df0565b9050919050565b6000604051905081810181811067ffffffffffffffff8211171561105157611050611285565b5b8060405250919050565b600067ffffffffffffffff82111561107657611075611285565b5b602082029050602081019050919050565b600067ffffffffffffffff8211156110a2576110a1611285565b5b602082029050602081019050919050565b600067ffffffffffffffff8211156110ce576110cd611285565b5b601f19601f8301169050602081019050919050565b6000819050602082019050919050565b600081519050919050565b600081519050919050565b6000602082019050919050565b600082825260208201905092915050565b600082825260208201905092915050565b600082825260208201905092915050565b600081905092915050565b60008115159050919050565b6000819050919050565b82818337600083830152505050565b60005b8381101561119757808201518184015260208101905061117c565b838111156111a6576000848401525b50505050565b600060028204905060018216806111c457607f821691505b602082108114156111d8576111d7611256565b5b50919050565b60006111e982611160565b91507fffffffffffffffffffffffffffffffffffffffffffffffffffffffffffffffff82141561121c5761121b611227565b5b600182019050919050565b7f4e487b7100000000000000000000000000000000000000000000000000000000600052601160045260246000fd5b7f4e487b7100000000000000000000000000000000000000000000000000000000600052602260045260246000fd5b7f4e487b7100000000000000000000000000000000000000000000000000000000600052604160045260246000fd5b6000601f19601f8301169050919050565b6112ce81611154565b81146112d957600080fd5b50565b6112e581611160565b81146112f057600080fd5b5056fea2646970667358221220da63c029d3855bba41610ebf4a1e7b1b0d64ec800ff9d89ca6b099bc7a4f684864736f6c63430008000033",
  "immutableReferences": {},
  "source": "// SPDX-License-Identifier: MIT\r\npragma solidity ^0.8.0;\r\n\r\ncontract FarmerDataSubmission {\r\n    // Struct to store product details\r\n    struct Product {\r\n        string productName;\r\n        uint256 productQuantity;\r\n        uint256 daysToGrow; // Days taken to grow the crop\r\n    }\r\n\r\n    // Struct to store farmer details\r\n    struct Farmer {\r\n        string name;\r\n        string aadharId;\r\n        string location;\r\n        uint256 farmSize;\r\n        bool npopCertified;\r\n        Product[] products; // Array to store multiple products\r\n    }\r\n\r\n    // Mapping to store farmer data using Aadhar ID as the key\r\n    mapping(string => Farmer) public farmers;\r\n\r\n    // Event to log when farmer data is submitted\r\n    event FarmerDataSubmitted(string aadharId, string name, uint256 timestamp);\r\n\r\n    // Function to submit farmer data\r\n    function submitFarmerData(\r\n        string memory name,\r\n        string memory aadharId,\r\n        string memory location,\r\n        uint256 farmSize,\r\n        bool npopCertified,\r\n        string[] memory productNames,\r\n        uint256[] memory productQuantities,\r\n        uint256[] memory daysToGrow\r\n    ) public {\r\n        require(farmers[aadharId].farmSize == 0, \"Farmer data already exists!\"); // Ensure unique Aadhar ID\r\n        require(\r\n            productNames.length == productQuantities.length &&\r\n            productQuantities.length == daysToGrow.length,\r\n            \"Mismatch in product data arrays\"\r\n        );\r\n\r\n        // Create farmer struct\r\n        Farmer storage farmer = farmers[aadharId];\r\n        farmer.name = name;\r\n        farmer.aadharId = aadharId;\r\n        farmer.location = location;\r\n        farmer.farmSize = farmSize;\r\n        farmer.npopCertified = npopCertified;\r\n\r\n        // Add products\r\n        for (uint256 i = 0; i < productNames.length; i++) {\r\n            farmer.products.push(Product({\r\n                productName: productNames[i],\r\n                productQuantity: productQuantities[i],\r\n                daysToGrow: daysToGrow[i]\r\n            }));\r\n        }\r\n\r\n        // Emit event\r\n        emit FarmerDataSubmitted(aadharId, name, block.timestamp);\r\n    }\r\n\r\n    // Function to fetch farmer data by Aadhar ID\r\n    function getFarmerData(string memory aadharId) public view returns (\r\n        string memory name,\r\n        string memory location,\r\n        uint256 farmSize,\r\n        bool npopCertified,\r\n        Product[] memory products\r\n    ) {\r\n        Farmer storage farmer = farmers[aadharId];\r\n        require(farmer.farmSize != 0, \"Farmer not found!\");\r\n\r\n        return (\r\n            farmer.name,\r\n            farmer.location,\r\n            farmer.farmSize,\r\n            farmer.npopCertified,\r\n            farmer.products\r\n        );\r\n    }\r\n}",
  "sourcePath": "A:\\Aarambh\\imp\\Food 1\\contracts\\FarmerDataSubmission.sol",
  "compiler": {
    "name": "solc",
    "version": "0.8.0+commit.c7dfd78e.Emscripten.clang"
  },
  "schemaVersion": "3.4.16",
  "updatedAt": "2025-03-27T07:51:08.534Z",
  "networkType": "ethereum",
  "devdoc": {
    "kind": "dev",
    "methods": {},
    "version": 1
  },
  "userdoc": {
    "kind": "user",
    "methods": {},
    "version": 1
  }
}