{
  "contractName": "PesticideSeller",
  "abi": [
    {
      "anonymous": false,
      "inputs": [
        {
          "indexed": true,
          "internalType": "string",
          "name": "aadharNumber",
          "type": "string"
        },
        {
          "indexed": false,
          "internalType": "string",
          "name": "farmerName",
          "type": "string"
        },
        {
          "indexed": false,
          "internalType": "uint256",
          "name": "timestamp",
          "type": "uint256"
        }
      ],
      "name": "PesticideSellerDataSubmitted",
      "type": "event"
    },
    {
      "inputs": [
        {
          "internalType": "string",
          "name": "farmerName",
          "type": "string"
        },
        {
          "internalType": "string",
          "name": "aadharNumber",
          "type": "string"
        },
        {
          "internalType": "bool",
          "name": "farmerFillData",
          "type": "bool"
        },
        {
          "internalType": "string[]",
          "name": "cropNames",
          "type": "string[]"
        },
        {
          "internalType": "uint256[]",
          "name": "cropQuantities",
          "type": "uint256[]"
        },
        {
          "internalType": "string[]",
          "name": "pesticideNames",
          "type": "string[]"
        },
        {
          "internalType": "uint256[]",
          "name": "pesticideQuantities",
          "type": "uint256[]"
        }
      ],
      "name": "submitPesticideSellerData",
      "outputs": [],
      "stateMutability": "nonpayable",
      "type": "function"
    },
    {
      "inputs": [
        {
          "internalType": "string",
          "name": "aadharNumber",
          "type": "string"
        }
      ],
      "name": "getFarmerData",
      "outputs": [
        {
          "internalType": "string",
          "name": "farmerName",
          "type": "string"
        },
        {
          "internalType": "bool",
          "name": "farmerFilledData",
          "type": "bool"
        },
        {
          "components": [
            {
              "internalType": "string",
              "name": "name",
              "type": "string"
            },
            {
              "internalType": "uint256",
              "name": "quantity",
              "type": "uint256"
            }
          ],
          "internalType": "struct PesticideSeller.Crop[]",
          "name": "crops",
          "type": "tuple[]"
        },
        {
          "components": [
            {
              "internalType": "string",
              "name": "name",
              "type": "string"
            },
            {
              "internalType": "uint256",
              "name": "quantity",
              "type": "uint256"
            }
          ],
          "internalType": "struct PesticideSeller.Pesticide[]",
          "name": "pesticides",
          "type": "tuple[]"
        }
      ],
      "stateMutability": "view",
      "type": "function",
      "constant": true
    },
    {
      "inputs": [
        {
          "internalType": "string",
          "name": "aadharNumber",
          "type": "string"
        }
      ],
      "name": "farmerExists",
      "outputs": [
        {
          "internalType": "bool",
          "name": "",
          "type": "bool"
        }
      ],
      "stateMutability": "view",
      "type": "function",
      "constant": true
    }
  ],
  "bytecode": "0x608060405234801561001057600080fd5b5061132e806100206000396000f3fe608060405234801561001057600080fd5b50600436106100415760003560e01c806397e9a62f14610046578063b3d2909e14610062578063c73a341914610092575b600080fd5b610060600480360381019061005b9190610aca565b6100c5565b005b61007c60048036038101906100779190610a89565b61044b565b6040516100899190610f11565b60405180910390f35b6100ac60048036038101906100a79190610a89565b610485565b6040516100bc9493929190610f2c565b60405180910390f35b8251845114610109576040517f08c379a000000000000000000000000000000000000000000000000000000000815260040161010090610fb6565b60405180910390fd5b805182511461014d576040517f08c379a000000000000000000000000000000000000000000000000000000000815260040161014490610fd6565b60405180910390fd5b6000808760405161015e9190610efa565b9081526020016040518091039020905087816000019080519060200190610186929190610751565b508681600101908051906020019061019f929190610751565b50858160020160006101000a81548160ff0219169083151502179055508060030160006101cc91906107d7565b60005b85518110156102d657816003016040518060400160405280888481518110610220577f4e487b7100000000000000000000000000000000000000000000000000000000600052603260045260246000fd5b60200260200101518152602001878481518110610266577f4e487b7100000000000000000000000000000000000000000000000000000000600052603260045260246000fd5b6020026020010151815250908060018154018082558091505060019003906000526020600020906002020160009091909190915060008201518160000190805190602001906102b6929190610751565b5060208201518160010155505080806102ce906111e3565b9150506101cf565b508060040160006102e791906107fb565b60005b83518110156103f15781600401604051806040016040528086848151811061033b577f4e487b7100000000000000000000000000000000000000000000000000000000600052603260045260246000fd5b60200260200101518152602001858481518110610381577f4e487b7100000000000000000000000000000000000000000000000000000000600052603260045260246000fd5b6020026020010151815250908060018154018082558091505060019003906000526020600020906002020160009091909190915060008201518160000190805190602001906103d1929190610751565b5060208201518160010155505080806103e9906111e3565b9150506102ea565b50866040516104009190610efa565b60405180910390207f6c3ee3fd89bd7b07d98748eb1fbf2f5dab37727987be0eb8232a1509d7f0c7888942604051610439929190610f86565b60405180910390a25050505050505050565b60008060008360405161045e9190610efa565b9081526020016040518091039020600101805461047a906111b1565b905014159050919050565b606060006060806000808660405161049d9190610efa565b90815260200160405180910390209050806000018160020160009054906101000a900460ff1682600301836004018380546104d7906111b1565b80601f0160208091040260200160405190810160405280929190818152602001828054610503906111b1565b80156105505780601f1061052557610100808354040283529160200191610550565b820191906000526020600020905b81548152906001019060200180831161053357829003601f168201915b5050505050935081805480602002602001604051908101604052809291908181526020016000905b8282101561064657838290600052602060002090600202016040518060400160405290816000820180546105ab906111b1565b80601f01602080910402602001604051908101604052809291908181526020018280546105d7906111b1565b80156106245780601f106105f957610100808354040283529160200191610624565b820191906000526020600020905b81548152906001019060200180831161060757829003601f168201915b5050505050815260200160018201548152505081526020019060010190610578565b50505050915080805480602002602001604051908101604052809291908181526020016000905b8282101561073b57838290600052602060002090600202016040518060400160405290816000820180546106a0906111b1565b80601f01602080910402602001604051908101604052809291908181526020018280546106cc906111b1565b80156107195780601f106106ee57610100808354040283529160200191610719565b820191906000526020600020905b8154815290600101906020018083116106fc57829003601f168201915b505050505081526020016001820154815250508152602001906001019061066d565b5050505090509450945094509450509193509193565b82805461075d906111b1565b90600052602060002090601f01602090048101928261077f57600085556107c6565b82601f1061079857805160ff19168380011785556107c6565b828001600101855582156107c6579182015b828111156107c55782518255916020019190600101906107aa565b5b5090506107d3919061081f565b5090565b50805460008255600202906000526020600020908101906107f8919061083c565b50565b508054600082556002029060005260206000209081019061081c919061086b565b50565b5b80821115610838576000816000905550600101610820565b5090565b5b808211156108675760008082016000610856919061089a565b60018201600090555060020161083d565b5090565b5b808211156108965760008082016000610885919061089a565b60018201600090555060020161086c565b5090565b5080546108a6906111b1565b6000825580601f106108b857506108d7565b601f0160209004906000526020600020908101906108d6919061081f565b5b50565b60006108ed6108e884611027565b610ff6565b9050808382526020820190508260005b8581101561092d57813585016109138882610a4a565b8452602084019350602083019250506001810190506108fd565b5050509392505050565b600061094a61094584611053565b610ff6565b9050808382526020820190508285602086028201111561096957600080fd5b60005b85811015610999578161097f8882610a74565b84526020840193506020830192505060018101905061096c565b5050509392505050565b60006109b66109b18461107f565b610ff6565b9050828152602081018484840111156109ce57600080fd5b6109d984828561116f565b509392505050565b600082601f8301126109f257600080fd5b8135610a028482602086016108da565b91505092915050565b600082601f830112610a1c57600080fd5b8135610a2c848260208601610937565b91505092915050565b600081359050610a44816112ca565b92915050565b600082601f830112610a5b57600080fd5b8135610a6b8482602086016109a3565b91505092915050565b600081359050610a83816112e1565b92915050565b600060208284031215610a9b57600080fd5b600082013567ffffffffffffffff811115610ab557600080fd5b610ac184828501610a4a565b91505092915050565b600080600080600080600060e0888a031215610ae557600080fd5b600088013567ffffffffffffffff811115610aff57600080fd5b610b0b8a828b01610a4a565b975050602088013567ffffffffffffffff811115610b2857600080fd5b610b348a828b01610a4a565b9650506040610b458a828b01610a35565b955050606088013567ffffffffffffffff811115610b6257600080fd5b610b6e8a828b016109e1565b945050608088013567ffffffffffffffff811115610b8b57600080fd5b610b978a828b01610a0b565b93505060a088013567ffffffffffffffff811115610bb457600080fd5b610bc08a828b016109e1565b92505060c088013567ffffffffffffffff811115610bdd57600080fd5b610be98a828b01610a0b565b91505092959891949750929550565b6000610c048383610e62565b905092915050565b6000610c188383610e9f565b905092915050565b6000610c2b826110cf565b610c35818561110a565b935083602082028501610c47856110af565b8060005b85811015610c835784840389528151610c648582610bf8565b9450610c6f836110f0565b925060208a01995050600181019050610c4b565b50829750879550505050505092915050565b6000610ca0826110da565b610caa818561111b565b935083602082028501610cbc856110bf565b8060005b85811015610cf85784840389528151610cd98582610c0c565b9450610ce4836110fd565b925060208a01995050600181019050610cc0565b50829750879550505050505092915050565b610d1381611159565b82525050565b6000610d24826110e5565b610d2e818561112c565b9350610d3e81856020860161117e565b610d47816112b9565b840191505092915050565b6000610d5d826110e5565b610d67818561113d565b9350610d7781856020860161117e565b610d80816112b9565b840191505092915050565b6000610d96826110e5565b610da0818561114e565b9350610db081856020860161117e565b80840191505092915050565b6000610dc9601d8361113d565b91507f43726f707320616e64207175616e746974696573206d69736d617463680000006000830152602082019050919050565b6000610e0960228361113d565b91507f5065737469636964657320616e64207175616e746974696573206d69736d617460008301527f63680000000000000000000000000000000000000000000000000000000000006020830152604082019050919050565b60006040830160008301518482036000860152610e7f8282610d19565b9150506020830151610e946020860182610edc565b508091505092915050565b60006040830160008301518482036000860152610ebc8282610d19565b9150506020830151610ed16020860182610edc565b508091505092915050565b610ee581611165565b82525050565b610ef481611165565b82525050565b6000610f068284610d8b565b915081905092915050565b6000602082019050610f266000830184610d0a565b92915050565b60006080820190508181036000830152610f468187610d52565b9050610f556020830186610d0a565b8181036040830152610f678185610c20565b90508181036060830152610f7b8184610c95565b905095945050505050565b60006040820190508181036000830152610fa08185610d52565b9050610faf6020830184610eeb565b9392505050565b60006020820190508181036000830152610fcf81610dbc565b9050919050565b60006020820190508181036000830152610fef81610dfc565b9050919050565b6000604051905081810181811067ffffffffffffffff8211171561101d5761101c61128a565b5b8060405250919050565b600067ffffffffffffffff8211156110425761104161128a565b5b602082029050602081019050919050565b600067ffffffffffffffff82111561106e5761106d61128a565b5b602082029050602081019050919050565b600067ffffffffffffffff82111561109a5761109961128a565b5b601f19601f8301169050602081019050919050565b6000819050602082019050919050565b6000819050602082019050919050565b600081519050919050565b600081519050919050565b600081519050919050565b6000602082019050919050565b6000602082019050919050565b600082825260208201905092915050565b600082825260208201905092915050565b600082825260208201905092915050565b600082825260208201905092915050565b600081905092915050565b60008115159050919050565b6000819050919050565b82818337600083830152505050565b60005b8381101561119c578082015181840152602081019050611181565b838111156111ab576000848401525b50505050565b600060028204905060018216806111c957607f821691505b602082108114156111dd576111dc61125b565b5b50919050565b60006111ee82611165565b91507fffffffffffffffffffffffffffffffffffffffffffffffffffffffffffffffff8214156112215761122061122c565b5b600182019050919050565b7f4e487b7100000000000000000000000000000000000000000000000000000000600052601160045260246000fd5b7f4e487b7100000000000000000000000000000000000000000000000000000000600052602260045260246000fd5b7f4e487b7100000000000000000000000000000000000000000000000000000000600052604160045260246000fd5b6000601f19601f8301169050919050565b6112d381611159565b81146112de57600080fd5b50565b6112ea81611165565b81146112f557600080fd5b5056fea26469706673582212202afe73823693e33e6955c9f9d7f8a3edfcb3436e2de852c5971a27db3a7e073d64736f6c63430008000033",
  "immutableReferences": {},
  "source": "// SPDX-License-Identifier: MIT\r\npragma solidity ^0.8.0;\r\n\r\ncontract PesticideSeller {\r\n\r\n    // Struct to store details about each crop\r\n    struct Crop {\r\n        string name;\r\n        uint256 quantity; // in kg\r\n    }\r\n\r\n    // Struct to store details about each pesticide\r\n    struct Pesticide {\r\n        string name;\r\n        uint256 quantity; // in liters\r\n    }\r\n\r\n    // Struct to store details about the farmer's data\r\n    struct Farmer {\r\n        string farmerName;\r\n        string aadharNumber;\r\n        bool farmerFilledData;\r\n        Crop[] crops; // Array of crops the farmer is growing\r\n        Pesticide[] pesticides; // Array of pesticides the farmer is using\r\n    }\r\n\r\n    // Mapping to store each farmer by their Aadhar number\r\n    mapping(string => Farmer) private farmers;\r\n\r\n    // Event to log when farmer data is submitted\r\n    event PesticideSellerDataSubmitted(\r\n        string indexed aadharNumber,\r\n        string farmerName,\r\n        uint256 timestamp\r\n    );\r\n\r\n    // Function to submit pesticide seller data\r\n    function submitPesticideSellerData(\r\n        string memory farmerName,\r\n        string memory aadharNumber,\r\n        bool farmerFillData,\r\n        string[] memory cropNames,\r\n        uint256[] memory cropQuantities,\r\n        string[] memory pesticideNames,\r\n        uint256[] memory pesticideQuantities\r\n    ) public {\r\n        // Ensure that the arrays have the same length\r\n        require(cropNames.length == cropQuantities.length, \"Crops and quantities mismatch\");\r\n        require(pesticideNames.length == pesticideQuantities.length, \"Pesticides and quantities mismatch\");\r\n\r\n        // Create or update the farmer's data\r\n        Farmer storage farmer = farmers[aadharNumber];\r\n        farmer.farmerName = farmerName;\r\n        farmer.aadharNumber = aadharNumber;\r\n        farmer.farmerFilledData = farmerFillData;\r\n\r\n        // Store crops data\r\n        delete farmer.crops; // Clear previous data\r\n        for (uint i = 0; i < cropNames.length; i++) {\r\n            farmer.crops.push(Crop({\r\n                name: cropNames[i],\r\n                quantity: cropQuantities[i]\r\n            }));\r\n        }\r\n\r\n        // Store pesticides data\r\n        delete farmer.pesticides; // Clear previous data\r\n        for (uint i = 0; i < pesticideNames.length; i++) {\r\n            farmer.pesticides.push(Pesticide({\r\n                name: pesticideNames[i],\r\n                quantity: pesticideQuantities[i]\r\n            }));\r\n        }\r\n\r\n        // Emit event when data is saved\r\n        emit PesticideSellerDataSubmitted(aadharNumber, farmerName, block.timestamp);\r\n    }\r\n\r\n    // Function to get farmer data by Aadhar number\r\n    function getFarmerData(string memory aadharNumber) public view returns (\r\n        string memory farmerName,\r\n        bool farmerFilledData,\r\n        Crop[] memory crops,\r\n        Pesticide[] memory pesticides\r\n    ) {\r\n        Farmer storage farmer = farmers[aadharNumber];\r\n        return (farmer.farmerName, farmer.farmerFilledData, farmer.crops, farmer.pesticides);\r\n    }\r\n\r\n    // Function to check if farmer data exists\r\n    function farmerExists(string memory aadharNumber) public view returns (bool) {\r\n        return bytes(farmers[aadharNumber].aadharNumber).length != 0;\r\n    }\r\n}\r\n",
  "sourcePath": "A:\\Aarambh\\imp\\Food 1\\contracts\\PesticideSeller.sol",
  "compiler": {
    "name": "solc",
    "version": "0.8.0+commit.c7dfd78e.Emscripten.clang"
  },
  "schemaVersion": "3.4.16",
  "updatedAt": "2025-03-27T07:51:08.787Z",
  "networkType": "ethereum",
  "devdoc": {
    "kind": "dev",
    "methods": {},
    "version": 1
  },
  "userdoc": {
    "kind": "user",
    "methods": {},
    "version": 1
  }
}